:100000000C942A000C9434000C9434000C943400AA
:100010000C9434000C9434000C9434000C94340090
:100020000C9434000C9434000C9434000C94340080
:100030000C9434000C9434000C9434000C94340070
:100040000C9434000C9434000C9434000C94340060
:100050000C94340011241FBECFE5D4E0DEBFCDBF29
:100060000E9436000C9416010C9400000E94BF0000
:100070000E94C4002FEF81EE94E021508040904018
:10008000E1F700C000000E94C60080E090E00E94FE
:10009000C80081E090E00E94C8002FEF81EE94E05C
:1000A000215080409040E1F700C0000082E090E0E5
:1000B0000E94C8002FEF81EE94E0215080409040D4
:1000C000E1F700C0000083E090E00E94C8002FEF3D
:1000D00081EE94E0215080409040E1F700C00000A4
:1000E00084E090E00E94C8002FEF81EE94E0215060
:1000F00080409040E1F700C0000085E090E00E9461
:10010000C8002FEF81EE94E0215080409040E1F74D
:1001100000C0000086E090E00E94C8002FEF81EE52
:1001200094E0215080409040E1F700C0000087E05B
:1001300090E00E94C8002FEF81EE94E021508040B3
:100140009040E1F700C0000088E090E00E94C80005
:100150002FEF81EE94E0215080409040E1F700C005
:10016000000089E090E00E94C8002FEF81EE94E04B
:10017000215080409040E1F700C0000079CFA09A64
:10018000A19AA29AA39A0895AC9A0895AC9808955A
:10019000009729F4A898A998AA98AB9810C0813024
:1001A000910529F4A89AA998AA98AB9810C0823012
:1001B000910529F4A99AA898AA98AB9810C0833001
:1001C000910529F4A89AA99AAA98AB9810C08430EE
:1001D000910529F4AA9AA998AB98A89810C08530DF
:1001E000910529F4AA9AA89AA998AB9810C08630CC
:1001F000910529F4AA9AA99AA898AB9810C08730BB
:10020000910529F4AA9AA89AA99AAB9808958830DA
:10021000910529F4AB9AA898A998AA9808950997E6
:1002200021F4AB9AA89AA998AA980895F894FFCFB8
:00000001FF
